:20F000007EF00310CE06CC10FF0086CC0149FD0080FD0082FD0084BDF15F8EF07ABDF1589C
:20F0200010FE00867F0093BDF15FBE0080BF00888E0000BF008C7D00932605863ABDF8030C
:20F04000BDF1B4BDF322240E292DBDF290810427DFBDF23720CA3410BE0082BC0084351051
:20F0600027037EF180C30000270D340683270F350622048D1720B97EF17754494E5920560F
:20F08000312E3338204D4336383039043406BDF290BF008EA6E4BE0088BC0082270510A368
:20F0A000842403BE0080BDF403BF0088252BBF008A3002A680810426FABC00822712A68039
:20F0C000BF0090BE008AA780BF008ABE009020E9BE008ABF0082BF0084BE008EC6FF5CA6F3
:20F0E00080810426F95D2603326239301FCB04301F5AA684812027F78604A7014FBE008228
:20F10000BF0090F30082FD0082FD0084BDF39A2409BF0082BF00847EF16FBE0082BF008AC9
:20F12000BE0090BC0088270CA682BF0090BE008AA78220E93506BE0088ED81BF0090BE001D
:20F140008EA680BF008EBE0090A780BF0090810426EC39BDF8033001A684810426F5398EA0
:20F16000F1688DF47F0092390D0A7F000000048D26534F525259048D1E57484154203F0439
:20F180008D15484F57203F048D0D425245414B048D0553544F50048DC68607BDF803FC0009
:20F1A0008CBDF6A88620BDF80335108DAB8DB07EF0208DAB8E0100BDF7F881202514817F75
:20F1C00027F58C0148260486072002A780BDF80320E581082725811827D8810A2732810DA2
:20F1E00026D57D00932705BDF80320073410BDF15F35108604A7848E0100398C010027B77B
:20F20000301F8608BDF8038620BDF803860820BD1A0176009320B630018D75810426F8BD03
:20F22000F571B6008CBA008D2716BC008226037EF180EC81FD008CBDF7F38D0825033406B8
:20F24000397EF5828D4ABF00888EF78EA68081042606BE00881A0139BF0090BE0088BF008A
:20F260008EBE008EA18426193001BF008EBE0090A680BF0090810426E8EC84BE008E1CFEA6
:20F2800039BE0090A680810426FA300220BE3001A684812027F8398D1A2422814125118152
:20F2A00046220D80371CFE3981412504815A230D1A0139813025F9813922F580301CFE39E2
:20F2C0008DCE8DE425131F89A6018DDC24E23001C041584FF300861CFE39BDF5503406BDCE
:20F2E000F290812C270981291A0127157EF1773001BDF4833402BDF2908129350226ED1CDE
:20F30000FE3001BF0088ADF1BE00881CFE39BDF290812D260D30018D092506405082001C00
:20F32000FC39BDF290BDF2B3242F81241A01266030016FE26FE2A684BDF297254F30013442
:20F34000103402EC6385F0264A5849584958495849EBE0ED62351020DD300134026FE2A6F5
:20F3600084BDF2B32526300134103402EC63584929215849291DE363291958492915EBE45A
:20F380008900290FED633261351020D335061CFE1CFD39AE6132651A033910FF008AFC0059
:20F3A0008A830030B3008439BDF53D34063410E6F802351032624F39BDF53D3406BDF2908A
:20F3C000813D27037EF1773001BDF483BDF5713410E7F802351032627EF222BDF290BF0049
:20F3E000888EF3ECBDF24C250234063955535204F2DA5045454B04F3A84D454D04F39A0481
:20F40000BE0080BC008226031A033910A38426031CFC3924051A011CFD39340286043001B9
:20F420003001A18426FA3502300120D78D5534065FBDF290813D2723813C261030015CBDF8
:20F44000F290813E26113001CB042013813E265F3001CB04BDF290813D26043001CB023464
:20F46000048D203410A3631FA8441F8948483404ABE0840626014C5FA4622701534F35101A
:20F480003263396FE26FE2BDF290812D2717812B260230018D1CE3E4EDE4BDF290812B2779
:20F4A000F1812D260A30018D094050820020E7350639BDF5253406BDF290812A2748812F0F
:20F4C000270335063930018D5C341030623406A884BDF56430E4BDF5643402861134024FA6
:20F4E0005FA3622406E3621CFE20021A016967696659496AE426EAA66132644D2A04306299
:20F500008D66351020B130018D1B3404E6623DA661E761E6E43DA662E76235043DABE4ABF5
:20F5200061EDE42092BDF2C0250934101F01EC84351039BDF32224FABDF3DB24F58D113492
:20F5400002BDF2908129350226033001397EF177BDF39A24037EF16FBDF290812826EE3095
:20F56000017EF4836D842A086084600124026A84393402BDF290810427037EF17730013570
:20F580000239BDF2C024037EF1773406BDF290813D27037EF1773001BDF4838DD4BF008860
:20F5A0003510ED84BE00887EF222BDF42C5D27037EF2377EF219BDF4838DB6BDF4002510CC
:20F5C0007EF232BDF4838DA9BF0088BDF40024037EF180BDF39A24037EF16FFC0088340604
:20F5E000FC008C3406BDF2323506FD008C35107EF222BDF290812C2736813B273E810427B7
:20F60000258122260630018D432009BDF48334108D483510BDF290812C2714813B271C8193
:20F620000427037EF1773410BDF15F35102015C6078620BDF803F5009226F63001BDF290AD
:20F64000810426B130017EF222BDF803A680810426037EF177812226F0394D2A0D40508291
:20F66000003402862DBDF80335028EF69C300210A38424058CF6A626F47F009010A3842553
:20F6800007A3847C009020F434028630BB0090BDF80335028CF6A62704300220DC39271005
:20F6A00003E80064000A00018EF6A020CCBDF2C0253F3406BF0088863FBDF803BDF1B4BDF0
:20F6C000F290810427F1BDF30E240B8EF706BDF158BDF15F20E1BF008E3510ED84BE008836
:20F6E000BDF290812C27037EF21F3001BDF2C024037EF17734063410BE008EBDF290812C02
:20F7000026BD300120B952452D454E54455204BE008686346F804A26FBBE00807EF22ABDC9
:20F72000F32224094F5FFD0088867F2019FD0088BDF290812C2705B60088200A3001BDF330
:20F740002224037EF177BDF5713406FC0088BF0088BDF400BC00822728350610A384252855
:20F760003406EC813410BDF6A835108620BDF803BDF15830013410BDF15F3510BDF7F3200C
:20F78000D332628603BDF803BE00887EF2224C455404F582494604F5AA474F544F04F5B66F
:20F7A000474F53554204F5C352455455524E04F571504F4B4504F3B85052494E5404F5F26D
:20F7C000494E50555404F6AD52454D04F21953544F5004F190454E4404F19052554E04F7E8
:20F7E0000F4C49535404F71F4E455704F00B3F04F5F204BDF822270ABDF809810326037E9C
:20F80000F188397C00927EF8138D1727FCB6C001847F393402B6C000850227F93502B7C024
:15F8200001393402B6C00085202705B6C00120F485013502399B
:02FFFE00F00011
:00000001FF
